{
  "_format": "hh-sol-artifact-1",
  "contractName": "UltraVerifier",
  "sourceName": "contracts/plonk_vk.sol",
  "abi": [
    {
      "inputs": [],
      "name": "INVALID_VERIFICATION_KEY",
      "type": "error"
    },
    {
      "inputs": [],
      "name": "MOD_EXP_FAILURE",
      "type": "error"
    },
    {
      "inputs": [],
      "name": "OPENING_COMMITMENT_FAILED",
      "type": "error"
    },
    {
      "inputs": [],
      "name": "PAIRING_FAILED",
      "type": "error"
    },
    {
      "inputs": [],
      "name": "PAIRING_PREAMBLE_FAILED",
      "type": "error"
    },
    {
      "inputs": [],
      "name": "POINT_NOT_ON_CURVE",
      "type": "error"
    },
    {
      "inputs": [
        {
          "internalType": "uint256",
          "name": "expected",
          "type": "uint256"
        },
        {
          "internalType": "uint256",
          "name": "actual",
          "type": "uint256"
        }
      ],
      "name": "PUBLIC_INPUT_COUNT_INVALID",
      "type": "error"
    },
    {
      "inputs": [],
      "name": "PUBLIC_INPUT_GE_P",
      "type": "error"
    },
    {
      "inputs": [],
      "name": "PUBLIC_INPUT_INVALID_BN128_G1_POINT",
      "type": "error"
    },
    {
      "inputs": [],
      "name": "getVerificationKeyHash",
      "outputs": [
        {
          "internalType": "bytes32",
          "name": "",
          "type": "bytes32"
        }
      ],
      "stateMutability": "pure",
      "type": "function"
    },
    {
      "inputs": [
        {
          "internalType": "bytes",
          "name": "_proof",
          "type": "bytes"
        },
        {
          "internalType": "bytes32[]",
          "name": "_publicInputs",
          "type": "bytes32[]"
        }
      ],
      "name": "verify",
      "outputs": [
        {
          "internalType": "bool",
          "name": "",
          "type": "bool"
        }
      ],
      "stateMutability": "view",
      "type": "function"
    }
  ],
  "bytecode": "0x608060405234801561001057600080fd5b50620100006103805260006103a08190527eeeb2cb5981ed45649abebde081dcff16c8601de4347e7dd1628ba2daac43b76103c0527f30641e0e92bebef818268d663bcad6dbcfd6c0149170f6d7d350b1b1fa6c10016103e0527f3038f817ceda3f9b46154dcddf275c7961eca7b6a5bdb3e337882dd55ddd88ac610400527f21c8277641ecf4e0a2e090d15565116384a3af90cf8c8214c04174fe771dab26610420527f18168fd757d1254cdb9bf05382abeb7eb508223b795de4570bc9d3aa248f6fa3610440527f255551760db6a26340c082332be7f4296a872b64fd0e4509c714321bf37c0c95610460527f1c9701220f9397edfb7cb06dbc3b42e45f3bd4ac990d5a9aed9db6b2ea43808c610480527f10d7e16df1de3962e0e73acc77a29558303c22d00c939da8e8bc0d8a546a4a436104a0527f2bcab8e23a26f89ea0096f36d74ff35c2a004a123b233df011d3e2cb2b0445006104c0527e012d43ce811693c84098fb290b57ccbae10ab848ce5b9da734d0bc5e110cb96104e0527f2a3ecd15ff5637f63e1574cc4842022445ca89944bb0c6f10637853c0db4fa2a610500527f2a8ffa887ca1b7cbac917ee7d074d8e00a22fe2ff995f43591ee906ea54d0e85610520527f227a9eedfa38403ff8f335ebbfd9fca7523b7eb72b3d738b1a8430dbc331d9b3610540527f19a8cdeb0d0c1815299433284a2111f6b273921180c5e8313a1a5f4fa25331f5610560527f10a9fa31920c74789385676620e48fb411820cfd3e0bab29c0f3db71145eafb6610580527f2c4de24e2c8574ab22060d8866a7dd05cabab3ebf22837d4ce333bcfe94be0a66105a0527f0dd0a3735713a9777881457b761c7398efb3d58093acb2113ca7c114104307966105c0527f0d74bf6b89ee09efbcc575946715c63955dc15683f8226a8193d91fbc078f4956105e0527f21245d6c0a4d2ff12b21a825f39f30e8f8cf9b259448d111183e975828539576610600527f16a409532c8a1693536e93b6ce9920bfc2e6796e8dfe404675a0cdf6ee77ee7a610620527f2f213c7a4c064a63d6a07366df0ea85aef9ad2125a188c3e656f95471e416a0a610640527f067a270bed55e72ffb3cfa39af3e5b8bcb4961d72bb301978af13c4ddc73e5df610660527f0dc17caf1942e2631fe76145446934a59dc1875f455af17a3f64e055f1ea9851610680527e966117ac064b68039b8e195172541b4d51ac764f6ca3fe19bba1d54137e8de6106a0527f121eca1ae24a2179bf439ef24c4bd45b2ed8d3006e7d54dfda95c643814e751b6106c0527f2a9363d4dce1b47925e61ad3a41cff362a50886c05ae42ea8e36a1f80a6fb7796106e0527f1aeace58940e1b32b5afbbab019ce6d8055e6e9c9e18e449bbc4bd82d215801e610700527f0e17de0143655fe6259374d035164da424eafc3419eff71e619343b36bc3c92c610720527f087ac5bedb65200d4c48d13f4602e18ea87fff70137277f0d09cf8867b59fc48610740527f060c5204a7812815c85fdcfcd0d4475a27de7d4671eeef2a2c854e9265d21894610760527f12ae80a8eb7973aa4f686b07dbe37c75529570e16b10a5b3c4827977e0a84d59610780527f1d3a1a46bea505152b623e00dbdf24b5c93ca1b6aa7992c496f20c706bf055aa6107a0527f12abb125b622e489847f93ef03c686db16f82e2781984d9a8e852343c92a22746107c0527f12312f3be41a36b6f950705c1e6dea7d7489b8a2ef69a7b5ace47f5fbf82fbd86107e0527f182e12997f029e3b6423c12ada68ba92ce7945da2983471d46712bae18e61a4e610800527f02f39973c28fcd8a7d95cc9b0062da55081d143430392f29bc19ad2383bb8d6e610820527f0f46272efa552ddc48b6a7b0d4702853283e7e0d2ee41323254580a1532ad6dc610840527f0f383ff85ef977e310e51a8f17a70dba9ace22742d52471a6827da4ca384e190610860527f06e56df7672980291a2e594d03839efbda3c1ac0e20e1b8073b044b22f7027ea610880527f0df3bb1e801324a65c2e41727fce8df868749409eba171edece810aca07f97de6108a0527f2dbcb9c914a96de906cabc78981dbedd2d45e4a7dd4f52b58c6b33d3f12af9526108c0527f2589d73a9e991a19caf661e93ba1244c4b0614271941a5242a58b7d4bd3bb6336108e0527f2253eb287ff0de931631fc53bbb78e83ffa0b90d3932b1c32c49b2065aa453e3610900527f28d671fef1aaf3f148819fe6c690462235fd573d367782a6b68e8d0e817cbd16610920527f267e51aad55f2b04b7b819b3cc36361a8269be12ab13dc8d54994ad931a49fa5610940527f047026b41b5dec650136ebd1d01ba0105374cd6a907168675e5f993ed6855bad610960527f207d887dce8cb35acd69a5be3fac8c99a33293333875a5ebafe7e86c6e218754610980527f14a410321c6ada21d0b3f24389f402a58c6c6fee91e59a6951c3423378395e506109a0526109c08190526109e0527f260e01b251f6f1c7e7ff4e580791dee8ea51d87a358e038b4efe30fac09383c1610a00527f0118c4d5b837bcc2bc89b5b398b5974e9f5944073b32078b7e231fec938883b0610a20527f04fc6369f7110fe3d25156c1bb9a72859cf2a04641f99ba4ee413c80da6a5fe4610a40527f22febda3c0c0632a56475b4214e5615e11e6dd3f96e6cea2854a87d4dacc5e55610a60527f0b5d56b77fe704e8e92338c0082f37e091126414c830e4c6922d5ac802d842d4613300527f30644e72e131a029b85045b68181585d97816a916871ca8d3c208c16d87cfd47600161040051610420518382830984600386838609088583840914841693505050506104405161046051838283098460038683860908858384091484169350505050610480516104a0518382830984600386838609088583840914841693505050506104c0516104e051838283098460038683860908858384091484169350508160005280602052505061050051610520518382830984600386838609088583840914841693505050506105405161056051838283098460038683860908858384091484169350505050610580516105a0518382830984600386838609088583840914841693505050506105c0516105e05183828309846003868386090885838409148416935050505061060051610620518382830984600386838609088583840914841693505050506106405161066051838283098460038683860908858384091484169350505050610680516106a0518382830984600386838609088583840914841693505050506106c0516106e05183828309846003868386090885838409148416935050505061070051610720518382830984600386838609088583840914841693505050506107405161076051838283098460038683860908858384091484169350505050610780516107a0518382830984600386838609088583840914841693505050506107c0516107e05183828309846003868386090885838409148416935050505061080051610820518382830984600386838609088583840914841693505050506108405161086051838283098460038683860908858384091484169350505050610880516108a0518382830984600386838609088583840914841693505050506108c0516108e05183828309846003868386090885838409148416935050505061090051610920518382830984600386838609088583840914841693505050506109405161096051838283098460038683860908858384091484169350505050610980516109a05183828309846003868386090885838409148416935050505080610af257637e5769bf60e01b60005260046000fd5b5050612ce580610b036000396000f3fe608060405234801561001057600080fd5b50600436106100365760003560e01c8063937f6a101461003b578063ea50d0e41461006e575b600080fd5b6040517fe3c86c4da3a5504ede18e40696498704268b75a746b4cd7a6174eb55dc32a52081526020015b60405180910390f35b61008161007c366004612bea565b610091565b6040519015158152602001610065565b620100006103805260006103a08190527eeeb2cb5981ed45649abebde081dcff16c8601de4347e7dd1628ba2daac43b76103c0527f30641e0e92bebef818268d663bcad6dbcfd6c0149170f6d7d350b1b1fa6c10016103e0527f3038f817ceda3f9b46154dcddf275c7961eca7b6a5bdb3e337882dd55ddd88ac610400527f21c8277641ecf4e0a2e090d15565116384a3af90cf8c8214c04174fe771dab26610420527f18168fd757d1254cdb9bf05382abeb7eb508223b795de4570bc9d3aa248f6fa3610440527f255551760db6a26340c082332be7f4296a872b64fd0e4509c714321bf37c0c95610460527f1c9701220f9397edfb7cb06dbc3b42e45f3bd4ac990d5a9aed9db6b2ea43808c610480527f10d7e16df1de3962e0e73acc77a29558303c22d00c939da8e8bc0d8a546a4a436104a0527f2bcab8e23a26f89ea0096f36d74ff35c2a004a123b233df011d3e2cb2b0445006104c0527e012d43ce811693c84098fb290b57ccbae10ab848ce5b9da734d0bc5e110cb96104e0527f2a3ecd15ff5637f63e1574cc4842022445ca89944bb0c6f10637853c0db4fa2a610500527f2a8ffa887ca1b7cbac917ee7d074d8e00a22fe2ff995f43591ee906ea54d0e85610520527f227a9eedfa38403ff8f335ebbfd9fca7523b7eb72b3d738b1a8430dbc331d9b3610540527f19a8cdeb0d0c1815299433284a2111f6b273921180c5e8313a1a5f4fa25331f5610560527f10a9fa31920c74789385676620e48fb411820cfd3e0bab29c0f3db71145eafb6610580527f2c4de24e2c8574ab22060d8866a7dd05cabab3ebf22837d4ce333bcfe94be0a66105a0527f0dd0a3735713a9777881457b761c7398efb3d58093acb2113ca7c114104307966105c0527f0d74bf6b89ee09efbcc575946715c63955dc15683f8226a8193d91fbc078f4956105e0527f21245d6c0a4d2ff12b21a825f39f30e8f8cf9b259448d111183e975828539576610600527f16a409532c8a1693536e93b6ce9920bfc2e6796e8dfe404675a0cdf6ee77ee7a610620527f2f213c7a4c064a63d6a07366df0ea85aef9ad2125a188c3e656f95471e416a0a610640527f067a270bed55e72ffb3cfa39af3e5b8bcb4961d72bb301978af13c4ddc73e5df610660527f0dc17caf1942e2631fe76145446934a59dc1875f455af17a3f64e055f1ea9851610680527e966117ac064b68039b8e195172541b4d51ac764f6ca3fe19bba1d54137e8de6106a0527f121eca1ae24a2179bf439ef24c4bd45b2ed8d3006e7d54dfda95c643814e751b6106c0527f2a9363d4dce1b47925e61ad3a41cff362a50886c05ae42ea8e36a1f80a6fb7796106e0527f1aeace58940e1b32b5afbbab019ce6d8055e6e9c9e18e449bbc4bd82d215801e610700527f0e17de0143655fe6259374d035164da424eafc3419eff71e619343b36bc3c92c610720527f087ac5bedb65200d4c48d13f4602e18ea87fff70137277f0d09cf8867b59fc48610740527f060c5204a7812815c85fdcfcd0d4475a27de7d4671eeef2a2c854e9265d21894610760527f12ae80a8eb7973aa4f686b07dbe37c75529570e16b10a5b3c4827977e0a84d59610780527f1d3a1a46bea505152b623e00dbdf24b5c93ca1b6aa7992c496f20c706bf055aa6107a0527f12abb125b622e489847f93ef03c686db16f82e2781984d9a8e852343c92a22746107c0527f12312f3be41a36b6f950705c1e6dea7d7489b8a2ef69a7b5ace47f5fbf82fbd86107e0527f182e12997f029e3b6423c12ada68ba92ce7945da2983471d46712bae18e61a4e610800527f02f39973c28fcd8a7d95cc9b0062da55081d143430392f29bc19ad2383bb8d6e610820527f0f46272efa552ddc48b6a7b0d4702853283e7e0d2ee41323254580a1532ad6dc610840527f0f383ff85ef977e310e51a8f17a70dba9ace22742d52471a6827da4ca384e190610860527f06e56df7672980291a2e594d03839efbda3c1ac0e20e1b8073b044b22f7027ea610880527f0df3bb1e801324a65c2e41727fce8df868749409eba171edece810aca07f97de6108a0527f2dbcb9c914a96de906cabc78981dbedd2d45e4a7dd4f52b58c6b33d3f12af9526108c0527f2589d73a9e991a19caf661e93ba1244c4b0614271941a5242a58b7d4bd3bb6336108e0527f2253eb287ff0de931631fc53bbb78e83ffa0b90d3932b1c32c49b2065aa453e3610900527f28d671fef1aaf3f148819fe6c690462235fd573d367782a6b68e8d0e817cbd16610920527f267e51aad55f2b04b7b819b3cc36361a8269be12ab13dc8d54994ad931a49fa5610940527f047026b41b5dec650136ebd1d01ba0105374cd6a907168675e5f993ed6855bad610960527f207d887dce8cb35acd69a5be3fac8c99a33293333875a5ebafe7e86c6e218754610980527f14a410321c6ada21d0b3f24389f402a58c6c6fee91e59a6951c3423378395e506109a0526109c08190526109e08190527f260e01b251f6f1c7e7ff4e580791dee8ea51d87a358e038b4efe30fac09383c1610a00527f0118c4d5b837bcc2bc89b5b398b5974e9f5944073b32078b7e231fec938883b0610a20527f04fc6369f7110fe3d25156c1bb9a72859cf2a04641f99ba4ee413c80da6a5fe4610a40527f22febda3c0c0632a56475b4214e5615e11e6dd3f96e6cea2854a87d4dacc5e55610a60527f0b5d56b77fe704e8e92338c0082f37e091126414c830e4c6922d5ac802d842d46133005280821561089a576040517f7667dc9b000000000000000000000000000000000000000000000000000000008152600481018290526024810184905260440160405180910390fd5b7f30644e72e131a029b85045b68181585d97816a916871ca8d3c208c16d87cfd477f30644e72e131a029b85045b68181585d2833e84879b9709143e1f593f00000016024600435018281350661122052826020820135066112005282604082013506611260528260608201350661124052826080820135066112a0528260a082013506611280528260c0820135066112e0528260e0820135066112c05282610100820135066113205282610120820135066113005282610140820135066113605282610160820135066113405282610180820135066113a052826101a08201350661138052826101c0820135066113e052826101e0820135066113c05282610200820135066114205282610220820135066114005282610240820135066114605282610260820135066114405282610280820135066114a052826102a08201350661148052816102c08201350661160052816102e0820135066116205281610300820135066116405281610320820135066116605281610340820135066116805281610360820135066116a05281610380820135066116c052816103a0820135066116e052816103c08201350661170052816103e0820135066117205281610400820135066117405281610420820135066117605281610440820135066117805281610460820135066117a05281610480820135066117c052816104a0820135066117e052816104c08201350661180052816104e0820135066119605281610500820135066119805281610520820135066119a05281610540820135066119c052816105608201350661184052816105808201350661186052816105a08201350661188052816105c0820135066118a052816105e0820135066118c05281610600820135066118e05281610620820135066119005281610640820135066119205281610660820135066119405281610680820135066119e052816106a08201350661200052816106c08201350661202052816106e0820135066120405281610700820135066120605281610720820135066120805281610740820135066120a05281610760820135066120c05281610780820135066120e052816107a08201350661210052816107c08201350661212052826107e08201350661232052826108008201350661230052826108208201350661236052826108408201350661234052506109c05115610d15576024803501806109e05160051b0190508035602082013560441b81019050604082013560881b81019050606082013560cc1b81019050608082013560a083013560441b8101905060c083013560881b8101905060e083013560cc1b8101905061010083013561012084013560441b8101905061014084013560881b8101905061016084013560cc1b810190506101808401356101a085013560441b810190506101c085013560881b810190506101e085013560cc1b810190508361340052826134205281613440528061346052868110878410168783108886101616610d0f577feba9f4a60000000000000000000000000000000000000000000000000000000060005260046000fd5b50505050505b6103805160e01b6000526103a05160e01b60045260086000208061348052602480350160206103a05102808260206134800137600435602401915060c0826134a083013760e0016134802083810661266081905290925090508281800961268052828161268051096126a05250806000526112e0516020526112c051604052611320516060526113005160805260a0600020905081810661260052806000526001602053506021600090812082810661262052815261136051602052611340516040526113a0516060526113805160805260a09020818106612640819052828180096133205282816133205109613340528281613340510961336052806133805250806000526113e0516020526113c05160405261142051606052611400516080526114605160a0526114405160c0526114a05160e052611480516101005261012060002090508181066126c052806126e0525061260051612620516103c051600180856001602480350160206103a0510281018360058a0984600c8b0999505b81831015610ed557823585811085169450858a82089050858183018909975085818c01880996505084888209905084888b099950602083019250610e96565b50505080610f07577f374a972f0000000000000000000000000000000000000000000000000000000060005260046000fd5b50508161300052806130205250505050508081600161260051086126205109806103805160015b81811015610f43578483840992508001610f2e565b5050613100528181800990508181820961312052506126c05161038051819060015b81811015610f7a578483840992508001610f65565b50508061304052826001840382089050613300518084036103e051858286088684840992508687848808820990508684840992508687848808820990508687888686098808820990506103c051925086828609915086600188038708878485099450876001890389898b888d8b8c0909090896506130205194508493508782860994508488878709955085898388099650868a61312051890997508760206000526020805260206040528b8b8a0960605260028c036080528b60a0526020600060c0600060055afa611070577ff894a7bc0000000000000000000000000000000000000000000000000000000060005260046000fd5b60005198508b818a0990508b8b8a0998508b828a0991508b613120518a0998508b838a0992508b858a0998508b848a0993508b8a8a0998508b888a0997508b868a0998508b613020518d8b8c090998508b896130005109613060528b888b09613080528b848709613680528b8388096130a0528b826131005109613140528b8188096130c052505050505050505050505061264051506126005161262051828361190051840982611620510101846118e051850983611600510101098384611940518509836116605101018561192051860984611640510101098485868385096116a051096133805109858661198051870985611620510101876119605188098661160051010109925085866119c051870985611660510101876119a0518809866116405101010991508586878885870961208051096133805109870382089050856126405161338051096133805285868788613060518a0361208051086130c0510961338051098208905085612640516133805109613380528586878860018a036116a051086130a05109613380510982086135005250505050508061264051613380510961338052806117205161266051098182836120205161178051096116405108820890508161266051820990508182836120005161176051096116205108820890508161266051820990508182836119e0516117005109611600510882089050816118405183846126605161186051098586612680516118805109876126a0516118a05109080808826120c0518485612660516120e051098687612680516121005109886126a051612120510908080883846001612600510861262051098461262051866118c051870908935084818687612600518609860808925084838509935084856001612600510885099350846130a05161264051099250848385089350846116c0518509935084838603850893508481868761260051612060510961168051080892505050826130c05161332051098381850383089150836120a05183099150838461314051830983089150508261338051848386038508096135205250508061334051613380510961338052806116e0516116005109816117005161162051098261172051611640510983611740516116605109847f183227397098d014dc2822db40c0ac2e9419f4243cdcb848a1f0fac9f80000008687600389036117a0510888611760518a6116205161160051090909098586878889858a08880886088408611780510894505050505081828384856116605161160051086119e051870308611760510884600286036117a05108096126405109828384858685612040510887600189036117a051080985086117a05109613380510961354052505080613320516133805109613380526002810360038203826116005184036116205108836116205185036116405108846116405186036116605108856116605187036119e05108866133805188898888088a8b8b8a088c8a8e038e8c8d09080909099350868788612640516133805109898a8988088b8c8c8a088d8a8f038f8c8d090809090985089350868788613320516133805109898a8987088b8c8c89088d898f038f8b8c090809090985089350868788613340516133805109898a8986088b8c8c88088d888f038f8a8b090809090985089350505050836117c051820961356052505061336051613380518392500961338052806116205182036119e051088161204051612040510982611640516116405109836116e05185612040516116405109098485868384088785870888030886878788098889611620516119e0510861200051080908925050508261338051848561176051870360010884090990508261202051611640510883611640518503856116e05161204051090884858287611620518903612000510809868685090893505050828361264051613380510984856117605187036001088509099150826117e0518484840809613580525050806116205161162051098161164051611640510982611620518460118408098360048309915083600982099050836003840992508381850385848788611620516116205108612000510809089150508283846120205161164051088561164051611640510809840384856120005187036116205108850908915082613380518209905082836126405161338051098309915082611760518209905082611760518309915082836117e0518585850809613580510861358052505080613360516133805109613380528081611620516119e05109826120005161160051090881612020518303838461164051611620510985611660516116005109080882681000000000000000008209905082612040518403820890508282820890508261174051820990508268100000000000000000830991508283612000516119e05109830891508261172051848561166051611640510886038508098361176051858661204051612020510887038761166051880808099250836117005185858786860808096135c0525050612000518291506140009009816119e0518208905081614000820990508161164051820890508161400082099050816116205182089050816140008209905081611600518208905081611660518303820890508161174051820990508161400061202051098261200051820890508261400082099050826119e05182089050826140008209905082611660518208905082614000820990508261164051820890508261204051840382089050826117605182099050826117205184838508096135e0525050806126605161164051098161162051820890508161266051820990508161160051820890508161266051820990508161178051820890508082611660518403830891508161364052826116005184036119e05108836116605185036120405108848560018703840883098586848803600108830991508585876126405189858b61264051890908090861362052856126605161202051099450856120005186089450856126605186099450856119e0518608945085612660518609945085858703612040510894508561164051870361202051089150858687878903600108840987858903600108099150858487036116605108868760018903830882099050868760018903880887099550866126405184099250868284089250866126405184099250868684089250866126405184099250868184089250508161360052505083611620518503612000510892508361164051850385868488036001088609089250836117005161362051099150838461174051850983089150838461176051613640510983089150836116e0518309915083846117a051613600510983089150836135c05183089250836135e05184089250836118005184099250836133805184099250826135a05283613340516133805109613380525050508061368051826135a0518461358051866135605188613540518a61352051613500510808080808096136608190526126e0516136a08190526136c0919091526102e460043501610520816136e03750506105606136a020818106612700526000819052600160205381602160002006612720526002602053816021600020066127405260036020538160216000200661276052600460205381602160002006612780526005602053816021600020066127a0526006602053816021600020066127c0526007602053816021600020066127e0526008602053816021600020066128005260096020538160216000200661282052600a6020538160216000200661284052600b6020538160216000200661286052600c6020538160216000200661288052600d602053816021600020066128a052600e602053816021600020066128c052600f602053816021600020066128e05260106020538160216000200661290052601160205381602160002006612920526012602053816021600020066129405260136020538160216000200661296052601460205381602160002006612980526015602053816021600020066129a0526016602053816021600020066129c0526017602053816021600020066129e052601860205381602160002006612a0052601960205381602160002006612a2052601a60205381602160002006612a4052601b60205381602160002006612a6052601c60205381602160002006612a8052601d60205381602160002006612aa052601d6020535060216000908120828106612ac05281526123205160205261230051604052612360516060526123405160805260a08120829006612b00526113c0516113e0518482800985600387838609088683840914611ce1576328f6b59560e21b60005260046000fd5b50613160919091526131805261140051611420518482800985600387838609088683840914611d1b576328f6b59560e21b60005260046000fd5b50816000528060205250506130405160405260406131a06060600060075afa90506040613160608061316060065afa8116905061144051611460518482830985600387838609088683840914611d7c576328f6b59560e21b60005260046000fd5b50600091909152602052613040518290800960405260406131a06060600060075afa16604061316060808160065afa81169050611480516114a0518482830985600387838609088683840914611ddd576328f6b59560e21b60005260046000fd5b50600091909152602052613040518290818180090960405260406131a06060600060075afa16604061316060808160065afa8116905061120051611220518482830985600387838609088683840914611e41576328f6b59560e21b60005260046000fd5b50816000528060205250508161270051836001612b0051080960405260406131a06060600060075afa16604061316060808160065afa8116905061124051611260518482830985600387838609088683840914611ea9576328f6b59560e21b60005260046000fd5b50816000528060205250508161272051836001612b0051080960405260406131a06060600060075afa16604061316060808160065afa81169050611280516112a0518482830985600387838609088683840914611f11576328f6b59560e21b60005260046000fd5b50816000528060205250508161274051836001612b0051080960405260406131a06060600060075afa16604061316060808160065afa811690506112c0516112e0518482830985600387838609088683840914611f79576328f6b59560e21b60005260046000fd5b50816000528060205250508161276051836001612b0051080960405260406131a06060600060075afa16604061316060808160065afa8116905061130051611320518482830985600387838609088683840914611fe1576328f6b59560e21b60005260046000fd5b50816000528060205250508161278051836001612b0051080960405260406131a06060600060075afa16604061316060808160065afa8116905061134051611360518482830985600387838609088683840914612049576328f6b59560e21b60005260046000fd5b5081600052806020525050816127a051836001612b0051080960405260406131a06060600060075afa16604061316060808160065afa81169050611380516113a05184828309856003878386090886838409146120b1576328f6b59560e21b60005260046000fd5b5081600052806020525050816127c051836001612b0051080960405260406131a06060600060075afa16604061316060808160065afa811690506104005161042051816000528060205250506127e05160405260406131a06060600060075afa16604061316060808160065afa811690506104405161046051816000528060205250506128005160405260406131a06060600060075afa16604061316060808160065afa81169050610480516104a051816000528060205250506128205160405260406131a06060600060075afa16604061316060808160065afa811690506104c0516104e051816000528060205250506128405160405260406131a06060600060075afa16604061316060808160065afa811690506105005161052051816000528060205250506128605160405260406131a06060600060075afa16604061316060808160065afa811690506105405161056051816000528060205250506128805160405260406131a06060600060075afa16604061316060808160065afa81169050610580516105a051816000528060205250506128a05160405260406131a06060600060075afa16604061316060808160065afa811690506105c0516105e051816000528060205250506128c05160405260406131a06060600060075afa16604061316060808160065afa811690506106005161062051816000528060205250506128e05160405260406131a06060600060075afa16604061316060808160065afa811690506106405161066051816000528060205250506129005160405260406131a06060600060075afa16604061316060808160065afa81169050610680516106a051816000528060205250506129205160405260406131a06060600060075afa16604061316060808160065afa811690506106c0516106e051816000528060205250506129405160405260406131a06060600060075afa16604061316060808160065afa811690506107005161072051816000528060205250506129605160405260406131a06060600060075afa16604061316060808160065afa811690506107405161076051816000528060205250506129805160405260406131a06060600060075afa16604061316060808160065afa81169050610780516107a05181600052806020525050816129a051836001612b0051080960405260406131a06060600060075afa16604061316060808160065afa811690506107c0516107e05181600052806020525050816129c051836001612b0051080960405260406131a06060600060075afa16604061316060808160065afa81169050610800516108205181600052806020525050816129e051836001612b0051080960405260406131a06060600060075afa16604061316060808160065afa8116905061084051610860518160005280602052505081612a0051836001612b0051080960405260406131a06060600060075afa16604061316060808160065afa81169050610880516108a05181600052806020525050612a205160405260406131a06060600060075afa16604061316060808160065afa811690506108c0516108e05181600052806020525050612a405160405260406131a06060600060075afa16604061316060808160065afa81169050610900516109205181600052806020525050612a605160405260406131a06060600060075afa16604061316060808160065afa81169050610940516109605181600052806020525050612a805160405260406131a06060600060075afa16604061316060808160065afa81169050610980516109a05181600052806020525050612aa05160405260406131a06060600060075afa16604061316060808160065afa8116905081826116005184612b00516119e051090861270051098283846116205186612b00516120005109086127205109820890508283846116405186612b00516120205109086127405109820890508283846116605186612b00516120405109086127605109820890508283846116805186612b00516120605109086127805109820890508283846116a05186612b00516120805109086127a05109820890508283846116c05186612b00516120a05109086127c051098208905082836116e0516127e051098208905082836117005161280051098208905082836117205161282051098208905082836117405161284051098208905082836117605161286051098208905082836117805161288051098208905082836117a0516128a051098208905082836117c0516128c051098208905082836117e0516128e051098208905082836118005161290051098208905082836119605161292051098208905082836119805161294051098208905082836119a05161296051098208905082836119c0516129805109820890508283846118405186612b00516120c05109086129a05109820890508283846118605186612b00516120e05109086129c05109820890508283846118805186612b00516121005109086129e05109820890508283846118a05186612b0051612120510908612a0051098208905082836118c051612a2051098208905082836118e051612a40510982089050828361190051612a60510982089050828361192051612a80510982089050828361194051612aa0510982089050826136605182089050600160005260026020528083036040525060406131a06060600060075afa16604061316060808160065afa16806128a9577f4e7197630000000000000000000000000000000000000000000000000000000060005260046000fd5b612b00516126c051612300516123205186828309876003898386090888838409146128df576328f6b59560e21b60005260046000fd5b50816000528060205250508060405260406131a06060600060075afa92506040613160608061316060065afa831692506123405161236051868283098760038983860908888384091461293d576328f6b59560e21b60005260046000fd5b5081600052806020525050836103c05185838509096040525060406131a06060600060075afa821691506040613220608061316060065afa8216915061230051600052612320516020526123405160405261236051606052806080526040806060604060075afa8216915060406131e06080600060065afa82169150613200518403613200526109c05115612a9e57613400516134205185828309866003888386090887838409146129fa576328f6b59560e21b60005260046000fd5b50600091909152602052828180096040526040606080600060075afa8216915061344051613460518582830986600388838609088783840914612a48576328f6b59560e21b60005260046000fd5b50600091825260205260409060608160075afa821691506132205160a0526132405160c05260406132206080606060065afa821691506131e0516040526132005160605260406131e06080600060065afa821691505b5080612ace577f01882d810000000000000000000000000000000000000000000000000000000060005260046000fd5b61322051600052613240516020527f198e9393920d483a7260bfb731fb5d25f1aa493335a9e71297e485b7aef312c26040527f1800deef121f1e76426a00665e5c4479674322d4f75edadd46debd5cd992f6ed6060527f090689d0585ff075ec9e99ad690c3395bc4b313370b38ef355acdadcd122975b6080527f12c85ea5db8c6deb4aab71808dcb408fe3d1e7690c43d37b4ce6cc0166fa7daa60a0526131e05160c0526132005160e052610a005161010052610a205161012052610a405161014052610a60516101605260206000610180600060085afa90506000518116612bdc577fd71fd2630000000000000000000000000000000000000000000000000000000060005260046000fd5b505050600160005260206000f35b60008060008060408587031215612c0057600080fd5b843567ffffffffffffffff80821115612c1857600080fd5b818701915087601f830112612c2c57600080fd5b813581811115612c3b57600080fd5b886020828501011115612c4d57600080fd5b602092830196509450908601359080821115612c6857600080fd5b818701915087601f830112612c7c57600080fd5b813581811115612c8b57600080fd5b8860208260051b8501011115612ca057600080fd5b9598949750506020019450505056fea26469706673582212203ca16f87aea82153cb199775d259f444b128bbdf6b7d7dec4efa765c24c0bbef64736f6c63430008140033",
  "linkReferences": {},
  "deployedLinkReferences": {}
}